{
  "abi": [
    {
      "type": "constructor",
      "inputs": [],
      "stateMutability": "nonpayable"
    },
    {
      "type": "function",
      "name": "admin",
      "inputs": [],
      "outputs": [
        {
          "name": "",
          "type": "address",
          "internalType": "address"
        }
      ],
      "stateMutability": "view"
    },
    {
      "type": "function",
      "name": "credentials",
      "inputs": [
        {
          "name": "",
          "type": "bytes32",
          "internalType": "bytes32"
        }
      ],
      "outputs": [
        {
          "name": "issuer",
          "type": "address",
          "internalType": "address"
        },
        {
          "name": "issuedAt",
          "type": "uint256",
          "internalType": "uint256"
        },
        {
          "name": "isRevoked",
          "type": "bool",
          "internalType": "bool"
        },
        {
          "name": "exists",
          "type": "bool",
          "internalType": "bool"
        }
      ],
      "stateMutability": "view"
    },
    {
      "type": "function",
      "name": "dids",
      "inputs": [
        {
          "name": "",
          "type": "address",
          "internalType": "address"
        }
      ],
      "outputs": [
        {
          "name": "didURI",
          "type": "string",
          "internalType": "string"
        },
        {
          "name": "controller",
          "type": "address",
          "internalType": "address"
        },
        {
          "name": "metadata",
          "type": "string",
          "internalType": "string"
        },
        {
          "name": "active",
          "type": "bool",
          "internalType": "bool"
        },
        {
          "name": "isVerified",
          "type": "bool",
          "internalType": "bool"
        },
        {
          "name": "registeredAt",
          "type": "uint256",
          "internalType": "uint256"
        }
      ],
      "stateMutability": "view"
    },
    {
      "type": "function",
      "name": "issueCredential",
      "inputs": [
        {
          "name": "_vcHash",
          "type": "bytes32",
          "internalType": "bytes32"
        }
      ],
      "outputs": [],
      "stateMutability": "nonpayable"
    },
    {
      "type": "function",
      "name": "registerDID",
      "inputs": [
        {
          "name": "_didURI",
          "type": "string",
          "internalType": "string"
        },
        {
          "name": "_name",
          "type": "string",
          "internalType": "string"
        }
      ],
      "outputs": [],
      "stateMutability": "nonpayable"
    },
    {
      "type": "function",
      "name": "resolveDID",
      "inputs": [
        {
          "name": "_issuer",
          "type": "address",
          "internalType": "address"
        }
      ],
      "outputs": [
        {
          "name": "",
          "type": "bool",
          "internalType": "bool"
        },
        {
          "name": "",
          "type": "bool",
          "internalType": "bool"
        },
        {
          "name": "",
          "type": "string",
          "internalType": "string"
        },
        {
          "name": "",
          "type": "string",
          "internalType": "string"
        }
      ],
      "stateMutability": "view"
    },
    {
      "type": "function",
      "name": "revokeCredential",
      "inputs": [
        {
          "name": "_vcHash",
          "type": "bytes32",
          "internalType": "bytes32"
        },
        {
          "name": "_reason",
          "type": "string",
          "internalType": "string"
        }
      ],
      "outputs": [],
      "stateMutability": "nonpayable"
    },
    {
      "type": "function",
      "name": "verifyCredentialStatus",
      "inputs": [
        {
          "name": "_vcHash",
          "type": "bytes32",
          "internalType": "bytes32"
        }
      ],
      "outputs": [
        {
          "name": "exists",
          "type": "bool",
          "internalType": "bool"
        },
        {
          "name": "isRevoked",
          "type": "bool",
          "internalType": "bool"
        },
        {
          "name": "issuer",
          "type": "address",
          "internalType": "address"
        }
      ],
      "stateMutability": "view"
    },
    {
      "type": "function",
      "name": "verifyIssuer",
      "inputs": [
        {
          "name": "_issuer",
          "type": "address",
          "internalType": "address"
        }
      ],
      "outputs": [],
      "stateMutability": "nonpayable"
    },
    {
      "type": "event",
      "name": "CredentialAnchored",
      "inputs": [
        {
          "name": "vcHash",
          "type": "bytes32",
          "indexed": true,
          "internalType": "bytes32"
        },
        {
          "name": "issuer",
          "type": "address",
          "indexed": true,
          "internalType": "address"
        }
      ],
      "anonymous": false
    },
    {
      "type": "event",
      "name": "CredentialRevoked",
      "inputs": [
        {
          "name": "vcHash",
          "type": "bytes32",
          "indexed": true,
          "internalType": "bytes32"
        },
        {
          "name": "reason",
          "type": "string",
          "indexed": false,
          "internalType": "string"
        }
      ],
      "anonymous": false
    },
    {
      "type": "event",
      "name": "DIDRegistered",
      "inputs": [
        {
          "name": "owner",
          "type": "address",
          "indexed": true,
          "internalType": "address"
        },
        {
          "name": "name",
          "type": "string",
          "indexed": false,
          "internalType": "string"
        }
      ],
      "anonymous": false
    }
  ],
  "bytecode": {
    "object": "0x6080604052348015600e575f5ffd5b50335f5f6101000a81548173ffffffffffffffffffffffffffffffffffffffff021916908373ffffffffffffffffffffffffffffffffffffffff16021790555061165a8061005b5f395ff3fe608060405234801561000f575f5ffd5b5060043610610091575f3560e01c806360c000d41161006457806360c000d41461014b5780637e5c39e914610167578063e627dcb614610183578063ec0619d4146101b6578063f851a440146101d257610091565b8063299d0348146100955780633593f81b146100c8578063493814b5146100fd5780635304c99a14610119575b5f5ffd5b6100af60048036038101906100aa9190610cc6565b6101f0565b6040516100bf9493929190610d62565b60405180910390f35b6100e260048036038101906100dd9190610dcf565b610254565b6040516100f496959493929190610e6a565b60405180910390f35b61011760048036038101906101129190611003565b6103d0565b005b610133600480360381019061012e9190610cc6565b6104d8565b6040516101429392919061105d565b60405180910390f35b61016560048036038101906101609190610dcf565b6105a9565b005b610181600480360381019061017c9190611092565b610692565b005b61019d60048036038101906101989190610dcf565b610825565b6040516101ad9493929190611108565b60405180910390f35b6101d060048036038101906101cb9190610cc6565b610a4b565b005b6101da610c5e565b6040516101e79190611159565b60405180910390f35b6002602052805f5260405f205f91509050805f015f9054906101000a900473ffffffffffffffffffffffffffffffffffffffff1690806001015490806002015f9054906101000a900460ff16908060020160019054906101000a900460ff16905084565b6001602052805f5260405f205f91509050805f0180546102739061119f565b80601f016020809104026020016040519081016040528092919081815260200182805461029f9061119f565b80156102ea5780601f106102c1576101008083540402835291602001916102ea565b820191905f5260205f20905b8154815290600101906020018083116102cd57829003601f168201915b505050505090806001015f9054906101000a900473ffffffffffffffffffffffffffffffffffffffff16908060020180546103249061119f565b80601f01602080910402602001604051908101604052809291908181526020018280546103509061119f565b801561039b5780601f106103725761010080835404028352916020019161039b565b820191905f5260205f20905b81548152906001019060200180831161037e57829003601f168201915b505050505090806003015f9054906101000a900460ff16908060030160019054906101000a900460ff16908060040154905086565b3373ffffffffffffffffffffffffffffffffffffffff1660025f8481526020019081526020015f205f015f9054906101000a900473ffffffffffffffffffffffffffffffffffffffff1673ffffffffffffffffffffffffffffffffffffffff1614610470576040517f08c379a000000000000000000000000000000000000000000000000000000000815260040161046790611219565b60405180910390fd5b600160025f8481526020019081526020015f206002015f6101000a81548160ff021916908315150217905550817f8a7dd18f81574794be0ac8390928b9b5988992a941406746e60f37ea696126d7826040516104cc9190611237565b60405180910390a25050565b5f5f5f5f60025f8681526020019081526020015f206040518060800160405290815f82015f9054906101000a900473ffffffffffffffffffffffffffffffffffffffff1673ffffffffffffffffffffffffffffffffffffffff1673ffffffffffffffffffffffffffffffffffffffff16815260200160018201548152602001600282015f9054906101000a900460ff161515151581526020016002820160019054906101000a900460ff161515151581525050905080606001518160400151825f0151935093509350509193909250565b5f5f9054906101000a900473ffffffffffffffffffffffffffffffffffffffff1673ffffffffffffffffffffffffffffffffffffffff163373ffffffffffffffffffffffffffffffffffffffff1614610637576040517f08c379a000000000000000000000000000000000000000000000000000000000815260040161062e906112a1565b60405180910390fd5b6001805f8373ffffffffffffffffffffffffffffffffffffffff1673ffffffffffffffffffffffffffffffffffffffff1681526020019081526020015f2060030160016101000a81548160ff02191690831515021790555050565b6040518060c001604052808381526020013373ffffffffffffffffffffffffffffffffffffffff1681526020018281526020016001151581526020015f151581526020014281525060015f3373ffffffffffffffffffffffffffffffffffffffff1673ffffffffffffffffffffffffffffffffffffffff1681526020019081526020015f205f820151815f01908161072a919061145f565b506020820151816001015f6101000a81548173ffffffffffffffffffffffffffffffffffffffff021916908373ffffffffffffffffffffffffffffffffffffffff1602179055506040820151816002019081610786919061145f565b506060820151816003015f6101000a81548160ff02191690831515021790555060808201518160030160016101000a81548160ff02191690831515021790555060a082015181600401559050503373ffffffffffffffffffffffffffffffffffffffff167fbfab59a7af78dfc896c3096604749fcee2db2e850297de42de5e6369f54bd3fb826040516108199190611237565b60405180910390a25050565b5f5f6060805f60015f8773ffffffffffffffffffffffffffffffffffffffff1673ffffffffffffffffffffffffffffffffffffffff1681526020019081526020015f206040518060c00160405290815f820180546108829061119f565b80601f01602080910402602001604051908101604052809291908181526020018280546108ae9061119f565b80156108f95780601f106108d0576101008083540402835291602001916108f9565b820191905f5260205f20905b8154815290600101906020018083116108dc57829003601f168201915b50505050508152602001600182015f9054906101000a900473ffffffffffffffffffffffffffffffffffffffff1673ffffffffffffffffffffffffffffffffffffffff1673ffffffffffffffffffffffffffffffffffffffff1681526020016002820180546109679061119f565b80601f01602080910402602001604051908101604052809291908181526020018280546109939061119f565b80156109de5780601f106109b5576101008083540402835291602001916109de565b820191905f5260205f20905b8154815290600101906020018083116109c157829003601f168201915b50505050508152602001600382015f9054906101000a900460ff161515151581526020016003820160019054906101000a900460ff161515151581526020016004820154815250509050806060015181608001518260400151835f01519450945094509450509193509193565b60015f3373ffffffffffffffffffffffffffffffffffffffff1673ffffffffffffffffffffffffffffffffffffffff1681526020019081526020015f2060030160019054906101000a900460ff16610ad8576040517f08c379a0000000000000000000000000000000000000000000000000000000008152600401610acf9061159e565b60405180910390fd5b60025f8281526020019081526020015f2060020160019054906101000a900460ff1615610b3a576040517f08c379a0000000000000000000000000000000000000000000000000000000008152600401610b3190611606565b60405180910390fd5b60405180608001604052803373ffffffffffffffffffffffffffffffffffffffff1681526020014281526020015f151581526020016001151581525060025f8381526020019081526020015f205f820151815f015f6101000a81548173ffffffffffffffffffffffffffffffffffffffff021916908373ffffffffffffffffffffffffffffffffffffffff160217905550602082015181600101556040820151816002015f6101000a81548160ff02191690831515021790555060608201518160020160016101000a81548160ff0219169083151502179055509050503373ffffffffffffffffffffffffffffffffffffffff16817f8ebc325b43d6b4a6b8861fb286f45903e4439805363d3ea86ee568214dd3393760405160405180910390a350565b5f5f9054906101000a900473ffffffffffffffffffffffffffffffffffffffff1681565b5f604051905090565b5f5ffd5b5f5ffd5b5f819050919050565b610ca581610c93565b8114610caf575f5ffd5b50565b5f81359050610cc081610c9c565b92915050565b5f60208284031215610cdb57610cda610c8b565b5b5f610ce884828501610cb2565b91505092915050565b5f73ffffffffffffffffffffffffffffffffffffffff82169050919050565b5f610d1a82610cf1565b9050919050565b610d2a81610d10565b82525050565b5f819050919050565b610d4281610d30565b82525050565b5f8115159050919050565b610d5c81610d48565b82525050565b5f608082019050610d755f830187610d21565b610d826020830186610d39565b610d8f6040830185610d53565b610d9c6060830184610d53565b95945050505050565b610dae81610d10565b8114610db8575f5ffd5b50565b5f81359050610dc981610da5565b92915050565b5f60208284031215610de457610de3610c8b565b5b5f610df184828501610dbb565b91505092915050565b5f81519050919050565b5f82825260208201905092915050565b8281835e5f83830152505050565b5f601f19601f8301169050919050565b5f610e3c82610dfa565b610e468185610e04565b9350610e56818560208601610e14565b610e5f81610e22565b840191505092915050565b5f60c0820190508181035f830152610e828189610e32565b9050610e916020830188610d21565b8181036040830152610ea38187610e32565b9050610eb26060830186610d53565b610ebf6080830185610d53565b610ecc60a0830184610d39565b979650505050505050565b5f5ffd5b5f5ffd5b7f4e487b71000000000000000000000000000000000000000000000000000000005f52604160045260245ffd5b610f1582610e22565b810181811067ffffffffffffffff82111715610f3457610f33610edf565b5b80604052505050565b5f610f46610c82565b9050610f528282610f0c565b919050565b5f67ffffffffffffffff821115610f7157610f70610edf565b5b610f7a82610e22565b9050602081019050919050565b828183375f83830152505050565b5f610fa7610fa284610f57565b610f3d565b905082815260208101848484011115610fc357610fc2610edb565b5b610fce848285610f87565b509392505050565b5f82601f830112610fea57610fe9610ed7565b5b8135610ffa848260208601610f95565b91505092915050565b5f5f6040838503121561101957611018610c8b565b5b5f61102685828601610cb2565b925050602083013567ffffffffffffffff81111561104757611046610c8f565b5b61105385828601610fd6565b9150509250929050565b5f6060820190506110705f830186610d53565b61107d6020830185610d53565b61108a6040830184610d21565b949350505050565b5f5f604083850312156110a8576110a7610c8b565b5b5f83013567ffffffffffffffff8111156110c5576110c4610c8f565b5b6110d185828601610fd6565b925050602083013567ffffffffffffffff8111156110f2576110f1610c8f565b5b6110fe85828601610fd6565b9150509250929050565b5f60808201905061111b5f830187610d53565b6111286020830186610d53565b818103604083015261113a8185610e32565b9050818103606083015261114e8184610e32565b905095945050505050565b5f60208201905061116c5f830184610d21565b92915050565b7f4e487b71000000000000000000000000000000000000000000000000000000005f52602260045260245ffd5b5f60028204905060018216806111b657607f821691505b6020821081036111c9576111c8611172565b5b50919050565b7f42756b616e2070656e65726269742061736c69210000000000000000000000005f82015250565b5f611203601483610e04565b915061120e826111cf565b602082019050919050565b5f6020820190508181035f830152611230816111f7565b9050919050565b5f6020820190508181035f83015261124f8184610e32565b905092915050565b7f42756b616e2041646d696e0000000000000000000000000000000000000000005f82015250565b5f61128b600b83610e04565b915061129682611257565b602082019050919050565b5f6020820190508181035f8301526112b88161127f565b9050919050565b5f819050815f5260205f209050919050565b5f6020601f8301049050919050565b5f82821b905092915050565b5f6008830261131b7fffffffffffffffffffffffffffffffffffffffffffffffffffffffffffffffff826112e0565b61132586836112e0565b95508019841693508086168417925050509392505050565b5f819050919050565b5f61136061135b61135684610d30565b61133d565b610d30565b9050919050565b5f819050919050565b61137983611346565b61138d61138582611367565b8484546112ec565b825550505050565b5f5f905090565b6113a4611395565b6113af818484611370565b505050565b5b818110156113d2576113c75f8261139c565b6001810190506113b5565b5050565b601f821115611417576113e8816112bf565b6113f1846112d1565b81016020851015611400578190505b61141461140c856112d1565b8301826113b4565b50505b505050565b5f82821c905092915050565b5f6114375f198460080261141c565b1980831691505092915050565b5f61144f8383611428565b9150826002028217905092915050565b61146882610dfa565b67ffffffffffffffff81111561148157611480610edf565b5b61148b825461119f565b6114968282856113d6565b5f60209050601f8311600181146114c7575f84156114b5578287015190505b6114bf8582611444565b865550611526565b601f1984166114d5866112bf565b5f5b828110156114fc578489015182556001820191506020850194506020810190506114d7565b868310156115195784890151611515601f891682611428565b8355505b6001600288020188555050505b505050505050565b7f48616e7961204b616d707573205465727665726966696b617369202843656e745f8201527f616e6720426972752920796720626f6c65682100000000000000000000000000602082015250565b5f611588603383610e04565b91506115938261152e565b604082019050919050565b5f6020820190508181035f8301526115b58161157c565b9050919050565b7f4861736820696e692073756461682061646121000000000000000000000000005f82015250565b5f6115f0601383610e04565b91506115fb826115bc565b602082019050919050565b5f6020820190508181035f83015261161d816115e4565b905091905056fea26469706673582212203abf8f2453f34ec7fab724d9aa010925f74216ebe4c8cce31c9ac25e318cd99164736f6c634300081e0033",
    "linkReferences": {}
  },
  "methodIdentifiers": {
    "admin()": "f851a440",
    "credentials(bytes32)": "299d0348",
    "dids(address)": "3593f81b",
    "issueCredential(bytes32)": "ec0619d4",
    "registerDID(string,string)": "7e5c39e9",
    "resolveDID(address)": "e627dcb6",
    "revokeCredential(bytes32,string)": "493814b5",
    "verifyCredentialStatus(bytes32)": "5304c99a",
    "verifyIssuer(address)": "60c000d4"
  },
  "id": 0
}