{
  "abi": [
    {
      "type": "constructor",
      "inputs": [],
      "stateMutability": "nonpayable"
    },
    {
      "type": "function",
      "name": "admin",
      "inputs": [],
      "outputs": [
        {
          "name": "",
          "type": "address",
          "internalType": "address"
        }
      ],
      "stateMutability": "view"
    },
    {
      "type": "function",
      "name": "credentials",
      "inputs": [
        {
          "name": "",
          "type": "bytes32",
          "internalType": "bytes32"
        }
      ],
      "outputs": [
        {
          "name": "issuer",
          "type": "address",
          "internalType": "address"
        },
        {
          "name": "issuedAt",
          "type": "uint256",
          "internalType": "uint256"
        },
        {
          "name": "isRevoked",
          "type": "bool",
          "internalType": "bool"
        },
        {
          "name": "exists",
          "type": "bool",
          "internalType": "bool"
        }
      ],
      "stateMutability": "view"
    },
    {
      "type": "function",
      "name": "dids",
      "inputs": [
        {
          "name": "",
          "type": "address",
          "internalType": "address"
        }
      ],
      "outputs": [
        {
          "name": "didURI",
          "type": "string",
          "internalType": "string"
        },
        {
          "name": "controller",
          "type": "address",
          "internalType": "address"
        },
        {
          "name": "metadata",
          "type": "string",
          "internalType": "string"
        },
        {
          "name": "serviceEndpoint",
          "type": "string",
          "internalType": "string"
        },
        {
          "name": "active",
          "type": "bool",
          "internalType": "bool"
        },
        {
          "name": "isVerified",
          "type": "bool",
          "internalType": "bool"
        },
        {
          "name": "registeredAt",
          "type": "uint256",
          "internalType": "uint256"
        }
      ],
      "stateMutability": "view"
    },
    {
      "type": "function",
      "name": "issueCredential",
      "inputs": [
        {
          "name": "_vcHash",
          "type": "bytes32",
          "internalType": "bytes32"
        }
      ],
      "outputs": [],
      "stateMutability": "nonpayable"
    },
    {
      "type": "function",
      "name": "registerDID",
      "inputs": [
        {
          "name": "_didURI",
          "type": "string",
          "internalType": "string"
        },
        {
          "name": "_name",
          "type": "string",
          "internalType": "string"
        },
        {
          "name": "_endpoint",
          "type": "string",
          "internalType": "string"
        }
      ],
      "outputs": [],
      "stateMutability": "nonpayable"
    },
    {
      "type": "function",
      "name": "resolveDID",
      "inputs": [
        {
          "name": "_issuer",
          "type": "address",
          "internalType": "address"
        }
      ],
      "outputs": [
        {
          "name": "",
          "type": "bool",
          "internalType": "bool"
        },
        {
          "name": "",
          "type": "bool",
          "internalType": "bool"
        },
        {
          "name": "",
          "type": "string",
          "internalType": "string"
        },
        {
          "name": "",
          "type": "string",
          "internalType": "string"
        },
        {
          "name": "",
          "type": "string",
          "internalType": "string"
        }
      ],
      "stateMutability": "view"
    },
    {
      "type": "function",
      "name": "revokeCredential",
      "inputs": [
        {
          "name": "_vcHash",
          "type": "bytes32",
          "internalType": "bytes32"
        },
        {
          "name": "_reason",
          "type": "string",
          "internalType": "string"
        }
      ],
      "outputs": [],
      "stateMutability": "nonpayable"
    },
    {
      "type": "function",
      "name": "verifyCredentialStatus",
      "inputs": [
        {
          "name": "_vcHash",
          "type": "bytes32",
          "internalType": "bytes32"
        }
      ],
      "outputs": [
        {
          "name": "exists",
          "type": "bool",
          "internalType": "bool"
        },
        {
          "name": "isRevoked",
          "type": "bool",
          "internalType": "bool"
        },
        {
          "name": "issuer",
          "type": "address",
          "internalType": "address"
        }
      ],
      "stateMutability": "view"
    },
    {
      "type": "function",
      "name": "verifyIssuer",
      "inputs": [
        {
          "name": "_issuer",
          "type": "address",
          "internalType": "address"
        }
      ],
      "outputs": [],
      "stateMutability": "nonpayable"
    },
    {
      "type": "event",
      "name": "CredentialAnchored",
      "inputs": [
        {
          "name": "vcHash",
          "type": "bytes32",
          "indexed": true,
          "internalType": "bytes32"
        },
        {
          "name": "issuer",
          "type": "address",
          "indexed": true,
          "internalType": "address"
        }
      ],
      "anonymous": false
    },
    {
      "type": "event",
      "name": "CredentialRevoked",
      "inputs": [
        {
          "name": "vcHash",
          "type": "bytes32",
          "indexed": true,
          "internalType": "bytes32"
        },
        {
          "name": "reason",
          "type": "string",
          "indexed": false,
          "internalType": "string"
        }
      ],
      "anonymous": false
    },
    {
      "type": "event",
      "name": "DIDRegistered",
      "inputs": [
        {
          "name": "owner",
          "type": "address",
          "indexed": true,
          "internalType": "address"
        },
        {
          "name": "name",
          "type": "string",
          "indexed": false,
          "internalType": "string"
        }
      ],
      "anonymous": false
    }
  ],
  "bytecode": {
    "object": "0x6080604052348015600e575f5ffd5b50335f5f6101000a81548173ffffffffffffffffffffffffffffffffffffffff021916908373ffffffffffffffffffffffffffffffffffffffff1602179055506117f88061005b5f395ff3fe608060405234801561000f575f5ffd5b5060043610610091575f3560e01c806360c000d41161006457806360c000d41461014c578063caa0ce9c14610168578063e627dcb614610184578063ec0619d4146101b8578063f851a440146101d457610091565b8063299d0348146100955780633593f81b146100c8578063493814b5146100fe5780635304c99a1461011a575b5f5ffd5b6100af60048036038101906100aa9190610e0c565b6101f2565b6040516100bf9493929190610ea8565b60405180910390f35b6100e260048036038101906100dd9190610f15565b610256565b6040516100f59796959493929190610fb0565b60405180910390f35b6101186004803603810190610113919061115e565b61045e565b005b610134600480360381019061012f9190610e0c565b610566565b604051610143939291906111b8565b60405180910390f35b61016660048036038101906101619190610f15565b610637565b005b610182600480360381019061017d91906111ed565b610720565b005b61019e60048036038101906101999190610f15565b6108d0565b6040516101af959493929190611291565b60405180910390f35b6101d260048036038101906101cd9190610e0c565b610b91565b005b6101dc610da4565b6040516101e991906112f7565b60405180910390f35b6002602052805f5260405f205f91509050805f015f9054906101000a900473ffffffffffffffffffffffffffffffffffffffff1690806001015490806002015f9054906101000a900460ff16908060020160019054906101000a900460ff16905084565b6001602052805f5260405f205f91509050805f0180546102759061133d565b80601f01602080910402602001604051908101604052809291908181526020018280546102a19061133d565b80156102ec5780601f106102c3576101008083540402835291602001916102ec565b820191905f5260205f20905b8154815290600101906020018083116102cf57829003601f168201915b505050505090806001015f9054906101000a900473ffffffffffffffffffffffffffffffffffffffff16908060020180546103269061133d565b80601f01602080910402602001604051908101604052809291908181526020018280546103529061133d565b801561039d5780601f106103745761010080835404028352916020019161039d565b820191905f5260205f20905b81548152906001019060200180831161038057829003601f168201915b5050505050908060030180546103b29061133d565b80601f01602080910402602001604051908101604052809291908181526020018280546103de9061133d565b80156104295780601f1061040057610100808354040283529160200191610429565b820191905f5260205f20905b81548152906001019060200180831161040c57829003601f168201915b505050505090806004015f9054906101000a900460ff16908060040160019054906101000a900460ff16908060050154905087565b3373ffffffffffffffffffffffffffffffffffffffff1660025f8481526020019081526020015f205f015f9054906101000a900473ffffffffffffffffffffffffffffffffffffffff1673ffffffffffffffffffffffffffffffffffffffff16146104fe576040517f08c379a00000000000000000000000000000000000000000000000000000000081526004016104f5906113b7565b60405180910390fd5b600160025f8481526020019081526020015f206002015f6101000a81548160ff021916908315150217905550817f8a7dd18f81574794be0ac8390928b9b5988992a941406746e60f37ea696126d78260405161055a91906113d5565b60405180910390a25050565b5f5f5f5f60025f8681526020019081526020015f206040518060800160405290815f82015f9054906101000a900473ffffffffffffffffffffffffffffffffffffffff1673ffffffffffffffffffffffffffffffffffffffff1673ffffffffffffffffffffffffffffffffffffffff16815260200160018201548152602001600282015f9054906101000a900460ff161515151581526020016002820160019054906101000a900460ff161515151581525050905080606001518160400151825f0151935093509350509193909250565b5f5f9054906101000a900473ffffffffffffffffffffffffffffffffffffffff1673ffffffffffffffffffffffffffffffffffffffff163373ffffffffffffffffffffffffffffffffffffffff16146106c5576040517f08c379a00000000000000000000000000000000000000000000000000000000081526004016106bc9061143f565b60405180910390fd5b6001805f8373ffffffffffffffffffffffffffffffffffffffff1673ffffffffffffffffffffffffffffffffffffffff1681526020019081526020015f2060040160016101000a81548160ff02191690831515021790555050565b6040518060e001604052808481526020013373ffffffffffffffffffffffffffffffffffffffff1681526020018381526020018281526020016001151581526020015f151581526020014281525060015f3373ffffffffffffffffffffffffffffffffffffffff1673ffffffffffffffffffffffffffffffffffffffff1681526020019081526020015f205f820151815f0190816107be91906115fd565b506020820151816001015f6101000a81548173ffffffffffffffffffffffffffffffffffffffff021916908373ffffffffffffffffffffffffffffffffffffffff160217905550604082015181600201908161081a91906115fd565b50606082015181600301908161083091906115fd565b506080820151816004015f6101000a81548160ff02191690831515021790555060a08201518160040160016101000a81548160ff02191690831515021790555060c082015181600501559050503373ffffffffffffffffffffffffffffffffffffffff167fbfab59a7af78dfc896c3096604749fcee2db2e850297de42de5e6369f54bd3fb836040516108c391906113d5565b60405180910390a2505050565b5f5f60608060605f60015f8873ffffffffffffffffffffffffffffffffffffffff1673ffffffffffffffffffffffffffffffffffffffff1681526020019081526020015f206040518060e00160405290815f8201805461092f9061133d565b80601f016020809104026020016040519081016040528092919081815260200182805461095b9061133d565b80156109a65780601f1061097d576101008083540402835291602001916109a6565b820191905f5260205f20905b81548152906001019060200180831161098957829003601f168201915b50505050508152602001600182015f9054906101000a900473ffffffffffffffffffffffffffffffffffffffff1673ffffffffffffffffffffffffffffffffffffffff1673ffffffffffffffffffffffffffffffffffffffff168152602001600282018054610a149061133d565b80601f0160208091040260200160405190810160405280929190818152602001828054610a409061133d565b8015610a8b5780601f10610a6257610100808354040283529160200191610a8b565b820191905f5260205f20905b815481529060010190602001808311610a6e57829003601f168201915b50505050508152602001600382018054610aa49061133d565b80601f0160208091040260200160405190810160405280929190818152602001828054610ad09061133d565b8015610b1b5780601f10610af257610100808354040283529160200191610b1b565b820191905f5260205f20905b815481529060010190602001808311610afe57829003601f168201915b50505050508152602001600482015f9054906101000a900460ff161515151581526020016004820160019054906101000a900460ff16151515158152602001600582015481525050905080608001518160a001518260400151835f01518460600151955095509550955095505091939590929450565b60015f3373ffffffffffffffffffffffffffffffffffffffff1673ffffffffffffffffffffffffffffffffffffffff1681526020019081526020015f2060040160019054906101000a900460ff16610c1e576040517f08c379a0000000000000000000000000000000000000000000000000000000008152600401610c159061173c565b60405180910390fd5b60025f8281526020019081526020015f2060020160019054906101000a900460ff1615610c80576040517f08c379a0000000000000000000000000000000000000000000000000000000008152600401610c77906117a4565b60405180910390fd5b60405180608001604052803373ffffffffffffffffffffffffffffffffffffffff1681526020014281526020015f151581526020016001151581525060025f8381526020019081526020015f205f820151815f015f6101000a81548173ffffffffffffffffffffffffffffffffffffffff021916908373ffffffffffffffffffffffffffffffffffffffff160217905550602082015181600101556040820151816002015f6101000a81548160ff02191690831515021790555060608201518160020160016101000a81548160ff0219169083151502179055509050503373ffffffffffffffffffffffffffffffffffffffff16817f8ebc325b43d6b4a6b8861fb286f45903e4439805363d3ea86ee568214dd3393760405160405180910390a350565b5f5f9054906101000a900473ffffffffffffffffffffffffffffffffffffffff1681565b5f604051905090565b5f5ffd5b5f5ffd5b5f819050919050565b610deb81610dd9565b8114610df5575f5ffd5b50565b5f81359050610e0681610de2565b92915050565b5f60208284031215610e2157610e20610dd1565b5b5f610e2e84828501610df8565b91505092915050565b5f73ffffffffffffffffffffffffffffffffffffffff82169050919050565b5f610e6082610e37565b9050919050565b610e7081610e56565b82525050565b5f819050919050565b610e8881610e76565b82525050565b5f8115159050919050565b610ea281610e8e565b82525050565b5f608082019050610ebb5f830187610e67565b610ec86020830186610e7f565b610ed56040830185610e99565b610ee26060830184610e99565b95945050505050565b610ef481610e56565b8114610efe575f5ffd5b50565b5f81359050610f0f81610eeb565b92915050565b5f60208284031215610f2a57610f29610dd1565b5b5f610f3784828501610f01565b91505092915050565b5f81519050919050565b5f82825260208201905092915050565b8281835e5f83830152505050565b5f601f19601f8301169050919050565b5f610f8282610f40565b610f8c8185610f4a565b9350610f9c818560208601610f5a565b610fa581610f68565b840191505092915050565b5f60e0820190508181035f830152610fc8818a610f78565b9050610fd76020830189610e67565b8181036040830152610fe98188610f78565b90508181036060830152610ffd8187610f78565b905061100c6080830186610e99565b61101960a0830185610e99565b61102660c0830184610e7f565b98975050505050505050565b5f5ffd5b5f5ffd5b7f4e487b71000000000000000000000000000000000000000000000000000000005f52604160045260245ffd5b61107082610f68565b810181811067ffffffffffffffff8211171561108f5761108e61103a565b5b80604052505050565b5f6110a1610dc8565b90506110ad8282611067565b919050565b5f67ffffffffffffffff8211156110cc576110cb61103a565b5b6110d582610f68565b9050602081019050919050565b828183375f83830152505050565b5f6111026110fd846110b2565b611098565b90508281526020810184848401111561111e5761111d611036565b5b6111298482856110e2565b509392505050565b5f82601f83011261114557611144611032565b5b81356111558482602086016110f0565b91505092915050565b5f5f6040838503121561117457611173610dd1565b5b5f61118185828601610df8565b925050602083013567ffffffffffffffff8111156111a2576111a1610dd5565b5b6111ae85828601611131565b9150509250929050565b5f6060820190506111cb5f830186610e99565b6111d86020830185610e99565b6111e56040830184610e67565b949350505050565b5f5f5f6060848603121561120457611203610dd1565b5b5f84013567ffffffffffffffff81111561122157611220610dd5565b5b61122d86828701611131565b935050602084013567ffffffffffffffff81111561124e5761124d610dd5565b5b61125a86828701611131565b925050604084013567ffffffffffffffff81111561127b5761127a610dd5565b5b61128786828701611131565b9150509250925092565b5f60a0820190506112a45f830188610e99565b6112b16020830187610e99565b81810360408301526112c38186610f78565b905081810360608301526112d78185610f78565b905081810360808301526112eb8184610f78565b90509695505050505050565b5f60208201905061130a5f830184610e67565b92915050565b7f4e487b71000000000000000000000000000000000000000000000000000000005f52602260045260245ffd5b5f600282049050600182168061135457607f821691505b60208210810361136757611366611310565b5b50919050565b7f42756b616e2070656e65726269742061736c69210000000000000000000000005f82015250565b5f6113a1601483610f4a565b91506113ac8261136d565b602082019050919050565b5f6020820190508181035f8301526113ce81611395565b9050919050565b5f6020820190508181035f8301526113ed8184610f78565b905092915050565b7f42756b616e2041646d696e0000000000000000000000000000000000000000005f82015250565b5f611429600b83610f4a565b9150611434826113f5565b602082019050919050565b5f6020820190508181035f8301526114568161141d565b9050919050565b5f819050815f5260205f209050919050565b5f6020601f8301049050919050565b5f82821b905092915050565b5f600883026114b97fffffffffffffffffffffffffffffffffffffffffffffffffffffffffffffffff8261147e565b6114c3868361147e565b95508019841693508086168417925050509392505050565b5f819050919050565b5f6114fe6114f96114f484610e76565b6114db565b610e76565b9050919050565b5f819050919050565b611517836114e4565b61152b61152382611505565b84845461148a565b825550505050565b5f5f905090565b611542611533565b61154d81848461150e565b505050565b5b81811015611570576115655f8261153a565b600181019050611553565b5050565b601f8211156115b5576115868161145d565b61158f8461146f565b8101602085101561159e578190505b6115b26115aa8561146f565b830182611552565b50505b505050565b5f82821c905092915050565b5f6115d55f19846008026115ba565b1980831691505092915050565b5f6115ed83836115c6565b9150826002028217905092915050565b61160682610f40565b67ffffffffffffffff81111561161f5761161e61103a565b5b611629825461133d565b611634828285611574565b5f60209050601f831160018114611665575f8415611653578287015190505b61165d85826115e2565b8655506116c4565b601f1984166116738661145d565b5f5b8281101561169a57848901518255600182019150602085019450602081019050611675565b868310156116b757848901516116b3601f8916826115c6565b8355505b6001600288020188555050505b505050505050565b7f48616e7961204b616d707573205465727665726966696b617369202843656e745f8201527f616e6720426972752920796720626f6c65682100000000000000000000000000602082015250565b5f611726603383610f4a565b9150611731826116cc565b604082019050919050565b5f6020820190508181035f8301526117538161171a565b9050919050565b7f4861736820696e692073756461682061646121000000000000000000000000005f82015250565b5f61178e601383610f4a565b91506117998261175a565b602082019050919050565b5f6020820190508181035f8301526117bb81611782565b905091905056fea26469706673582212209327c9435da26141bb0ca9c30f1f483a1529fc9bb9daebc1bf8e0a786c98324e64736f6c634300081e0033",
    "linkReferences": {}
  },
  "methodIdentifiers": {
    "admin()": "f851a440",
    "credentials(bytes32)": "299d0348",
    "dids(address)": "3593f81b",
    "issueCredential(bytes32)": "ec0619d4",
    "registerDID(string,string,string)": "caa0ce9c",
    "resolveDID(address)": "e627dcb6",
    "revokeCredential(bytes32,string)": "493814b5",
    "verifyCredentialStatus(bytes32)": "5304c99a",
    "verifyIssuer(address)": "60c000d4"
  },
  "id": 0
}