{
  "abi": [
    {
      "type": "constructor",
      "inputs": [],
      "stateMutability": "nonpayable"
    },
    {
      "type": "function",
      "name": "credentials",
      "inputs": [
        {
          "name": "",
          "type": "bytes32",
          "internalType": "bytes32"
        }
      ],
      "outputs": [
        {
          "name": "issuer",
          "type": "address",
          "internalType": "address"
        },
        {
          "name": "issuedAt",
          "type": "uint256",
          "internalType": "uint256"
        },
        {
          "name": "isRevoked",
          "type": "bool",
          "internalType": "bool"
        },
        {
          "name": "exists",
          "type": "bool",
          "internalType": "bool"
        },
        {
          "name": "isValidated",
          "type": "bool",
          "internalType": "bool"
        }
      ],
      "stateMutability": "view"
    },
    {
      "type": "function",
      "name": "dids",
      "inputs": [
        {
          "name": "",
          "type": "address",
          "internalType": "address"
        }
      ],
      "outputs": [
        {
          "name": "didURI",
          "type": "string",
          "internalType": "string"
        },
        {
          "name": "controller",
          "type": "address",
          "internalType": "address"
        },
        {
          "name": "metadata",
          "type": "string",
          "internalType": "string"
        },
        {
          "name": "serviceEndpoint",
          "type": "string",
          "internalType": "string"
        },
        {
          "name": "active",
          "type": "bool",
          "internalType": "bool"
        },
        {
          "name": "isVerified",
          "type": "bool",
          "internalType": "bool"
        },
        {
          "name": "registeredAt",
          "type": "uint256",
          "internalType": "uint256"
        }
      ],
      "stateMutability": "view"
    },
    {
      "type": "function",
      "name": "issueCredential",
      "inputs": [
        {
          "name": "_vcHash",
          "type": "bytes32",
          "internalType": "bytes32"
        }
      ],
      "outputs": [],
      "stateMutability": "nonpayable"
    },
    {
      "type": "function",
      "name": "kemendikbud",
      "inputs": [],
      "outputs": [
        {
          "name": "",
          "type": "address",
          "internalType": "address"
        }
      ],
      "stateMutability": "view"
    },
    {
      "type": "function",
      "name": "pddikti",
      "inputs": [],
      "outputs": [
        {
          "name": "",
          "type": "address",
          "internalType": "address"
        }
      ],
      "stateMutability": "view"
    },
    {
      "type": "function",
      "name": "registerDID",
      "inputs": [
        {
          "name": "_didURI",
          "type": "string",
          "internalType": "string"
        },
        {
          "name": "_name",
          "type": "string",
          "internalType": "string"
        },
        {
          "name": "_endpoint",
          "type": "string",
          "internalType": "string"
        }
      ],
      "outputs": [],
      "stateMutability": "nonpayable"
    },
    {
      "type": "function",
      "name": "resolveDID",
      "inputs": [
        {
          "name": "_issuer",
          "type": "address",
          "internalType": "address"
        }
      ],
      "outputs": [
        {
          "name": "",
          "type": "bool",
          "internalType": "bool"
        },
        {
          "name": "",
          "type": "bool",
          "internalType": "bool"
        },
        {
          "name": "",
          "type": "string",
          "internalType": "string"
        },
        {
          "name": "",
          "type": "string",
          "internalType": "string"
        },
        {
          "name": "",
          "type": "string",
          "internalType": "string"
        }
      ],
      "stateMutability": "view"
    },
    {
      "type": "function",
      "name": "revokeCredential",
      "inputs": [
        {
          "name": "_vcHash",
          "type": "bytes32",
          "internalType": "bytes32"
        },
        {
          "name": "_reason",
          "type": "string",
          "internalType": "string"
        }
      ],
      "outputs": [],
      "stateMutability": "nonpayable"
    },
    {
      "type": "function",
      "name": "setPDDiktiAddress",
      "inputs": [
        {
          "name": "_pddiktiAddress",
          "type": "address",
          "internalType": "address"
        }
      ],
      "outputs": [],
      "stateMutability": "nonpayable"
    },
    {
      "type": "function",
      "name": "validateCredential",
      "inputs": [
        {
          "name": "_vcHash",
          "type": "bytes32",
          "internalType": "bytes32"
        }
      ],
      "outputs": [],
      "stateMutability": "nonpayable"
    },
    {
      "type": "function",
      "name": "verifyCredentialStatus",
      "inputs": [
        {
          "name": "_vcHash",
          "type": "bytes32",
          "internalType": "bytes32"
        }
      ],
      "outputs": [
        {
          "name": "exists",
          "type": "bool",
          "internalType": "bool"
        },
        {
          "name": "isRevoked",
          "type": "bool",
          "internalType": "bool"
        },
        {
          "name": "isValidated",
          "type": "bool",
          "internalType": "bool"
        },
        {
          "name": "issuer",
          "type": "address",
          "internalType": "address"
        }
      ],
      "stateMutability": "view"
    },
    {
      "type": "function",
      "name": "verifyIssuer",
      "inputs": [
        {
          "name": "_issuer",
          "type": "address",
          "internalType": "address"
        }
      ],
      "outputs": [],
      "stateMutability": "nonpayable"
    },
    {
      "type": "event",
      "name": "CredentialAnchored",
      "inputs": [
        {
          "name": "vcHash",
          "type": "bytes32",
          "indexed": true,
          "internalType": "bytes32"
        },
        {
          "name": "issuer",
          "type": "address",
          "indexed": true,
          "internalType": "address"
        }
      ],
      "anonymous": false
    },
    {
      "type": "event",
      "name": "CredentialRevoked",
      "inputs": [
        {
          "name": "vcHash",
          "type": "bytes32",
          "indexed": true,
          "internalType": "bytes32"
        },
        {
          "name": "reason",
          "type": "string",
          "indexed": false,
          "internalType": "string"
        }
      ],
      "anonymous": false
    },
    {
      "type": "event",
      "name": "CredentialValidated",
      "inputs": [
        {
          "name": "vcHash",
          "type": "bytes32",
          "indexed": true,
          "internalType": "bytes32"
        }
      ],
      "anonymous": false
    },
    {
      "type": "event",
      "name": "DIDRegistered",
      "inputs": [
        {
          "name": "owner",
          "type": "address",
          "indexed": true,
          "internalType": "address"
        },
        {
          "name": "name",
          "type": "string",
          "indexed": false,
          "internalType": "string"
        }
      ],
      "anonymous": false
    },
    {
      "type": "event",
      "name": "IssuerVerified",
      "inputs": [
        {
          "name": "issuer",
          "type": "address",
          "indexed": true,
          "internalType": "address"
        }
      ],
      "anonymous": false
    }
  ],
  "bytecode": {
    "object": "0x6080604052348015600e575f5ffd5b50335f5f6101000a81548173ffffffffffffffffffffffffffffffffffffffff021916908373ffffffffffffffffffffffffffffffffffffffff160217905550611d0b8061005b5f395ff3fe608060405234801561000f575f5ffd5b50600436106100b2575f3560e01c80635304c99a1161006f5780635304c99a1461019457806360c000d4146101c7578063caa0ce9c146101e3578063e627dcb6146101ff578063ec0619d414610233578063eee8e24f1461024f576100b2565b806307696d50146100b657806312df4a4d146100d4578063299d0348146100f05780633593f81b14610124578063380b3c4e1461015a578063493814b514610178575b5f5ffd5b6100be61026b565b6040516100cb91906111c6565b60405180910390f35b6100ee60048036038101906100e99190611223565b610290565b005b61010a60048036038101906101059190611223565b61043e565b60405161011b959493929190611280565b60405180910390f35b61013e600480360381019061013991906112fb565b6104b5565b6040516101519796959493929190611396565b60405180910390f35b6101626106bd565b60405161016f91906111c6565b60405180910390f35b610192600480360381019061018d9190611544565b6106e1565b005b6101ae60048036038101906101a99190611223565b6107e9565b6040516101be949392919061159e565b60405180910390f35b6101e160048036038101906101dc91906112fb565b6108dd565b005b6101fd60048036038101906101f891906115e1565b610a0a565b005b610219600480360381019061021491906112fb565b610bba565b60405161022a959493929190611685565b60405180910390f35b61024d60048036038101906102489190611223565b610e7b565b005b610269600480360381019061026491906112fb565b6110b6565b005b60015f9054906101000a900473ffffffffffffffffffffffffffffffffffffffff1681565b60015f9054906101000a900473ffffffffffffffffffffffffffffffffffffffff1673ffffffffffffffffffffffffffffffffffffffff163373ffffffffffffffffffffffffffffffffffffffff161461031f576040517f08c379a000000000000000000000000000000000000000000000000000000000815260040161031690611735565b60405180910390fd5b60035f8281526020019081526020015f2060020160019054906101000a900460ff16610380576040517f08c379a00000000000000000000000000000000000000000000000000000000081526004016103779061179d565b60405180910390fd5b60035f8281526020019081526020015f206002015f9054906101000a900460ff16156103e1576040517f08c379a00000000000000000000000000000000000000000000000000000000081526004016103d890611805565b60405180910390fd5b600160035f8381526020019081526020015f2060020160026101000a81548160ff021916908315150217905550807f58966f410a0cdbd5838b16cd32df1526842de72fa254e77086b410f9d2e5b6cd60405160405180910390a250565b6003602052805f5260405f205f91509050805f015f9054906101000a900473ffffffffffffffffffffffffffffffffffffffff1690806001015490806002015f9054906101000a900460ff16908060020160019054906101000a900460ff16908060020160029054906101000a900460ff16905085565b6002602052805f5260405f205f91509050805f0180546104d490611850565b80601f016020809104026020016040519081016040528092919081815260200182805461050090611850565b801561054b5780601f106105225761010080835404028352916020019161054b565b820191905f5260205f20905b81548152906001019060200180831161052e57829003601f168201915b505050505090806001015f9054906101000a900473ffffffffffffffffffffffffffffffffffffffff169080600201805461058590611850565b80601f01602080910402602001604051908101604052809291908181526020018280546105b190611850565b80156105fc5780601f106105d3576101008083540402835291602001916105fc565b820191905f5260205f20905b8154815290600101906020018083116105df57829003601f168201915b50505050509080600301805461061190611850565b80601f016020809104026020016040519081016040528092919081815260200182805461063d90611850565b80156106885780601f1061065f57610100808354040283529160200191610688565b820191905f5260205f20905b81548152906001019060200180831161066b57829003601f168201915b505050505090806004015f9054906101000a900460ff16908060040160019054906101000a900460ff16908060050154905087565b5f5f9054906101000a900473ffffffffffffffffffffffffffffffffffffffff1681565b3373ffffffffffffffffffffffffffffffffffffffff1660035f8481526020019081526020015f205f015f9054906101000a900473ffffffffffffffffffffffffffffffffffffffff1673ffffffffffffffffffffffffffffffffffffffff1614610781576040517f08c379a0000000000000000000000000000000000000000000000000000000008152600401610778906118ca565b60405180910390fd5b600160035f8481526020019081526020015f206002015f6101000a81548160ff021916908315150217905550817f8a7dd18f81574794be0ac8390928b9b5988992a941406746e60f37ea696126d7826040516107dd91906118e8565b60405180910390a25050565b5f5f5f5f5f60035f8781526020019081526020015f206040518060a00160405290815f82015f9054906101000a900473ffffffffffffffffffffffffffffffffffffffff1673ffffffffffffffffffffffffffffffffffffffff1673ffffffffffffffffffffffffffffffffffffffff16815260200160018201548152602001600282015f9054906101000a900460ff161515151581526020016002820160019054906101000a900460ff161515151581526020016002820160029054906101000a900460ff1615151515815250509050806060015181604001518260800151835f01519450945094509450509193509193565b5f5f9054906101000a900473ffffffffffffffffffffffffffffffffffffffff1673ffffffffffffffffffffffffffffffffffffffff163373ffffffffffffffffffffffffffffffffffffffff161461096b576040517f08c379a000000000000000000000000000000000000000000000000000000000815260040161096290611952565b60405180910390fd5b600160025f8373ffffffffffffffffffffffffffffffffffffffff1673ffffffffffffffffffffffffffffffffffffffff1681526020019081526020015f2060040160016101000a81548160ff0219169083151502179055508073ffffffffffffffffffffffffffffffffffffffff167f9cca3a5e0aa799ca2019cf1c56ffac790a8440945b75295db5cdffb2f7284be260405160405180910390a250565b6040518060e001604052808481526020013373ffffffffffffffffffffffffffffffffffffffff1681526020018381526020018281526020016001151581526020015f151581526020014281525060025f3373ffffffffffffffffffffffffffffffffffffffff1673ffffffffffffffffffffffffffffffffffffffff1681526020019081526020015f205f820151815f019081610aa89190611b10565b506020820151816001015f6101000a81548173ffffffffffffffffffffffffffffffffffffffff021916908373ffffffffffffffffffffffffffffffffffffffff1602179055506040820151816002019081610b049190611b10565b506060820151816003019081610b1a9190611b10565b506080820151816004015f6101000a81548160ff02191690831515021790555060a08201518160040160016101000a81548160ff02191690831515021790555060c082015181600501559050503373ffffffffffffffffffffffffffffffffffffffff167fbfab59a7af78dfc896c3096604749fcee2db2e850297de42de5e6369f54bd3fb83604051610bad91906118e8565b60405180910390a2505050565b5f5f60608060605f60025f8873ffffffffffffffffffffffffffffffffffffffff1673ffffffffffffffffffffffffffffffffffffffff1681526020019081526020015f206040518060e00160405290815f82018054610c1990611850565b80601f0160208091040260200160405190810160405280929190818152602001828054610c4590611850565b8015610c905780601f10610c6757610100808354040283529160200191610c90565b820191905f5260205f20905b815481529060010190602001808311610c7357829003601f168201915b50505050508152602001600182015f9054906101000a900473ffffffffffffffffffffffffffffffffffffffff1673ffffffffffffffffffffffffffffffffffffffff1673ffffffffffffffffffffffffffffffffffffffff168152602001600282018054610cfe90611850565b80601f0160208091040260200160405190810160405280929190818152602001828054610d2a90611850565b8015610d755780601f10610d4c57610100808354040283529160200191610d75565b820191905f5260205f20905b815481529060010190602001808311610d5857829003601f168201915b50505050508152602001600382018054610d8e90611850565b80601f0160208091040260200160405190810160405280929190818152602001828054610dba90611850565b8015610e055780601f10610ddc57610100808354040283529160200191610e05565b820191905f5260205f20905b815481529060010190602001808311610de857829003601f168201915b50505050508152602001600482015f9054906101000a900460ff161515151581526020016004820160019054906101000a900460ff16151515158152602001600582015481525050905080608001518160a001518260400151835f01518460600151955095509550955095505091939590929450565b60025f3373ffffffffffffffffffffffffffffffffffffffff1673ffffffffffffffffffffffffffffffffffffffff1681526020019081526020015f2060040160019054906101000a900460ff16610f08576040517f08c379a0000000000000000000000000000000000000000000000000000000008152600401610eff90611c4f565b60405180910390fd5b60035f8281526020019081526020015f2060020160019054906101000a900460ff1615610f6a576040517f08c379a0000000000000000000000000000000000000000000000000000000008152600401610f6190611cb7565b60405180910390fd5b6040518060a001604052803373ffffffffffffffffffffffffffffffffffffffff1681526020014281526020015f151581526020016001151581526020015f151581525060035f8381526020019081526020015f205f820151815f015f6101000a81548173ffffffffffffffffffffffffffffffffffffffff021916908373ffffffffffffffffffffffffffffffffffffffff160217905550602082015181600101556040820151816002015f6101000a81548160ff02191690831515021790555060608201518160020160016101000a81548160ff02191690831515021790555060808201518160020160026101000a81548160ff0219169083151502179055509050503373ffffffffffffffffffffffffffffffffffffffff16817f8ebc325b43d6b4a6b8861fb286f45903e4439805363d3ea86ee568214dd3393760405160405180910390a350565b5f5f9054906101000a900473ffffffffffffffffffffffffffffffffffffffff1673ffffffffffffffffffffffffffffffffffffffff163373ffffffffffffffffffffffffffffffffffffffff1614611144576040517f08c379a000000000000000000000000000000000000000000000000000000000815260040161113b90611952565b60405180910390fd5b8060015f6101000a81548173ffffffffffffffffffffffffffffffffffffffff021916908373ffffffffffffffffffffffffffffffffffffffff16021790555050565b5f73ffffffffffffffffffffffffffffffffffffffff82169050919050565b5f6111b082611187565b9050919050565b6111c0816111a6565b82525050565b5f6020820190506111d95f8301846111b7565b92915050565b5f604051905090565b5f5ffd5b5f5ffd5b5f819050919050565b611202816111f0565b811461120c575f5ffd5b50565b5f8135905061121d816111f9565b92915050565b5f60208284031215611238576112376111e8565b5b5f6112458482850161120f565b91505092915050565b5f819050919050565b6112608161124e565b82525050565b5f8115159050919050565b61127a81611266565b82525050565b5f60a0820190506112935f8301886111b7565b6112a06020830187611257565b6112ad6040830186611271565b6112ba6060830185611271565b6112c76080830184611271565b9695505050505050565b6112da816111a6565b81146112e4575f5ffd5b50565b5f813590506112f5816112d1565b92915050565b5f602082840312156113105761130f6111e8565b5b5f61131d848285016112e7565b91505092915050565b5f81519050919050565b5f82825260208201905092915050565b8281835e5f83830152505050565b5f601f19601f8301169050919050565b5f61136882611326565b6113728185611330565b9350611382818560208601611340565b61138b8161134e565b840191505092915050565b5f60e0820190508181035f8301526113ae818a61135e565b90506113bd60208301896111b7565b81810360408301526113cf818861135e565b905081810360608301526113e3818761135e565b90506113f26080830186611271565b6113ff60a0830185611271565b61140c60c0830184611257565b98975050505050505050565b5f5ffd5b5f5ffd5b7f4e487b71000000000000000000000000000000000000000000000000000000005f52604160045260245ffd5b6114568261134e565b810181811067ffffffffffffffff8211171561147557611474611420565b5b80604052505050565b5f6114876111df565b9050611493828261144d565b919050565b5f67ffffffffffffffff8211156114b2576114b1611420565b5b6114bb8261134e565b9050602081019050919050565b828183375f83830152505050565b5f6114e86114e384611498565b61147e565b9050828152602081018484840111156115045761150361141c565b5b61150f8482856114c8565b509392505050565b5f82601f83011261152b5761152a611418565b5b813561153b8482602086016114d6565b91505092915050565b5f5f6040838503121561155a576115596111e8565b5b5f6115678582860161120f565b925050602083013567ffffffffffffffff811115611588576115876111ec565b5b61159485828601611517565b9150509250929050565b5f6080820190506115b15f830187611271565b6115be6020830186611271565b6115cb6040830185611271565b6115d860608301846111b7565b95945050505050565b5f5f5f606084860312156115f8576115f76111e8565b5b5f84013567ffffffffffffffff811115611615576116146111ec565b5b61162186828701611517565b935050602084013567ffffffffffffffff811115611642576116416111ec565b5b61164e86828701611517565b925050604084013567ffffffffffffffff81111561166f5761166e6111ec565b5b61167b86828701611517565b9150509250925092565b5f60a0820190506116985f830188611271565b6116a56020830187611271565b81810360408301526116b7818661135e565b905081810360608301526116cb818561135e565b905081810360808301526116df818461135e565b90509695505050505050565b7f48616e796120504444696b7469210000000000000000000000000000000000005f82015250565b5f61171f600e83611330565b915061172a826116eb565b602082019050919050565b5f6020820190508181035f83015261174c81611713565b9050919050565b7f496a617a616820746964616b20646974656d756b616e000000000000000000005f82015250565b5f611787601683611330565b915061179282611753565b602082019050919050565b5f6020820190508181035f8301526117b48161177b565b9050919050565b7f496a617a61682073756461682064696361627574206b616d70757300000000005f82015250565b5f6117ef601b83611330565b91506117fa826117bb565b602082019050919050565b5f6020820190508181035f83015261181c816117e3565b9050919050565b7f4e487b71000000000000000000000000000000000000000000000000000000005f52602260045260245ffd5b5f600282049050600182168061186757607f821691505b60208210810361187a57611879611823565b5b50919050565b7f42756b616e2070656e65726269742061736c69210000000000000000000000005f82015250565b5f6118b4601483611330565b91506118bf82611880565b602082019050919050565b5f6020820190508181035f8301526118e1816118a8565b9050919050565b5f6020820190508181035f830152611900818461135e565b905092915050565b7f48616e7961204b656d656e64696b6275642100000000000000000000000000005f82015250565b5f61193c601283611330565b915061194782611908565b602082019050919050565b5f6020820190508181035f83015261196981611930565b9050919050565b5f819050815f5260205f209050919050565b5f6020601f8301049050919050565b5f82821b905092915050565b5f600883026119cc7fffffffffffffffffffffffffffffffffffffffffffffffffffffffffffffffff82611991565b6119d68683611991565b95508019841693508086168417925050509392505050565b5f819050919050565b5f611a11611a0c611a078461124e565b6119ee565b61124e565b9050919050565b5f819050919050565b611a2a836119f7565b611a3e611a3682611a18565b84845461199d565b825550505050565b5f5f905090565b611a55611a46565b611a60818484611a21565b505050565b5b81811015611a8357611a785f82611a4d565b600181019050611a66565b5050565b601f821115611ac857611a9981611970565b611aa284611982565b81016020851015611ab1578190505b611ac5611abd85611982565b830182611a65565b50505b505050565b5f82821c905092915050565b5f611ae85f1984600802611acd565b1980831691505092915050565b5f611b008383611ad9565b9150826002028217905092915050565b611b1982611326565b67ffffffffffffffff811115611b3257611b31611420565b5b611b3c8254611850565b611b47828285611a87565b5f60209050601f831160018114611b78575f8415611b66578287015190505b611b708582611af5565b865550611bd7565b601f198416611b8686611970565b5f5b82811015611bad57848901518255600182019150602085019450602081019050611b88565b86831015611bca5784890151611bc6601f891682611ad9565b8355505b6001600288020188555050505b505050505050565b7f48616e7961204b616d707573205465727665726966696b6173692079616e67205f8201527f626f6c6568210000000000000000000000000000000000000000000000000000602082015250565b5f611c39602683611330565b9150611c4482611bdf565b604082019050919050565b5f6020820190508181035f830152611c6681611c2d565b9050919050565b7f4861736820696e692073756461682061646121000000000000000000000000005f82015250565b5f611ca1601383611330565b9150611cac82611c6d565b602082019050919050565b5f6020820190508181035f830152611cce81611c95565b905091905056fea264697066735822122076133c2b1157acc6203eb0e3620e66576e08ddf860439bc2e0fc16b63c9d6b5c64736f6c634300081e0033",
    "linkReferences": {}
  },
  "methodIdentifiers": {
    "credentials(bytes32)": "299d0348",
    "dids(address)": "3593f81b",
    "issueCredential(bytes32)": "ec0619d4",
    "kemendikbud()": "380b3c4e",
    "pddikti()": "07696d50",
    "registerDID(string,string,string)": "caa0ce9c",
    "resolveDID(address)": "e627dcb6",
    "revokeCredential(bytes32,string)": "493814b5",
    "setPDDiktiAddress(address)": "eee8e24f",
    "validateCredential(bytes32)": "12df4a4d",
    "verifyCredentialStatus(bytes32)": "5304c99a",
    "verifyIssuer(address)": "60c000d4"
  },
  "id": 0
}